:060000000A128A110C280F
:10000800FE000308F0000A08F1000A128A11B62857
:100018000A128A11C92800308A000408840A820753
:1000280000340D340A345434723461347234613417
:100038007234613400340D340A34203444346F345B
:1000480077346E3400340D340A3420345534503447
:1000580000340330F500F601F701831686140615FF
:100068008612871707171930990090308312980065
:1000780024308316980001300A128A119C200A1233
:100088008A11D130831603138100831281018B16E4
:100098008B1775087806031D76288528780B56284F
:1000A800F60AF7017808023A031D8328F70AF601D1
:1000B80083287808033A031D6328F60AF701F8082D
:1000C8005828F808031D6A28F60AF7017808033A41
:1000D80058287808023A031D7328F60AF701780BA6
:1000E80083285A287508003A03195228013A031937
:1000F8005D28033A03196528013A03196D28780821
:10010800F50004307602031C902813300A128A1175
:100118009C200A128A11F60104307702031C4D282C
:100128000B300A128A119C200A128A11F7014D28F5
:10013800F3007308F30A84000A128A110F200A12C6
:100148008A11F400F408031908007408AE200A1292
:100158008A119D28F200831203130C1EAF2872081F
:10016800990008000B1DC228831203138101060899
:10017800F8000630F8050310F80C0B1171088A0016
:1001880070088300FE0E7E0E0900F80183010A1232
:040198008A112D2873
:02400E007A3FF7
:00000001FF
