:0800000017C0FECFFDCFFCCFBD
:10000800FBCFFACFF9CFF8CFF7CFF6CFF5CFF4CFB4
:10001800F3CFF2CFF1CFF0CFEFCFEECFEDCFFC6043
:10002800DAF266B6BEE0FEF6F894EE27ECBBF1E035
:10003800FBBFEBBFE5BF8DE0A2E0BB27ED938A9540
:10004800E9F780E094E0A0E6ED930197E9F7EFE5A2
:10005800EDBFE4E0EEBFC0E6D1E000C0EFEFE7BBE4
:10006800E0E0E8BBE4BBE5BBE0EFE1BBE2BB9498B2
:10007800959A969A14D09598969A979A1AD0A4E138
:10008800B0E01CD0949A959A969809D0959A969A29
:1000980097980FD0AEE1B0E011D0E9CFFFCF979A93
:1000A800E8E2F0E0049008BAA4E1B0E007D0949A3E
:1000B8000895E6E2F0E0049008BA0895109639F041
:1000C80080ED97E00197F1F7A8951197C9F7089582
:00000001FF
